:020000040800F2
:100000008005002001010008D927000821220008EE
:10001000D5270008A9050008D12E0008000000001F
:10002000000000000000000000000000C52E0008D5
:100030006909000800000000C12E0008C92E000850
:100040001B0100081B0100081B0100081B01000820
:100050001B0100081B0100081B0100081B01000810
:100060001B0100081B0100081B0100081B01000800
:100070001B0100081B0100081B0100081B010008F0
:100080001B0100081B0100081B0100081B010008E0
:100090001B0100081B0100081B0100081B010008D0
:1000A0001B0100081B0100081B0100081B010008C0
:1000B0001B0100081B0100081B0100081B010008B0
:1000C0001B0100081B0100081B0100081B010008A0
:1000D0001B0100081B0100081B0100081B01000890
:1000E0001B0100081B0100081B010008DFF80CD0F1
:1000F00000F028FA0048004735310008800500204C
:100100000648804706480047FEE7FEE7FEE7FEE7B1
:10011000FEE7FEE7FEE7FEE7FEE7FEE7CD2E00087E
:10012000ED000008F0B480EA0102D40F4200B2EB07
:10013000410F02D20246084611464A0042D0C30D82
:10014000DDB2C1F3C752AD1A202D35DAC1F3160165
:1001500041F4000204B15242C5F1200602FA06F150
:100160002A411044B3EBD05F23D0C4B1012DA0EBE2
:10017000C35009DCF0BC4FF0004202EAC352DBB2CC
:1001800000F5000000F052B9400000F1807000EB73
:10019000C350A0F1807040EAD170490009E04908DD
:1001A00041EAC071A0EBC35000F50000400800EB2D
:1001B000C350F0BC00F031B96142012202EB4101B1
:1001C000001BF6E7F0BC704781F00041AAE780F021
:1001D0000040A7E780EA010210B502F000434000AA
:1001E00022D04A001FD0010E01EB1261C0F356006D
:1001F000C2F3560240F4000042F40002A0FB0220C9
:1002000000047F39140400D0401C50EA124001D48D
:100210004000491EC2B20C0604EBD010401C40083E
:10022000802A02D003E0002010BD20F00100002948
:1002300000DA0020184310BD2DE9FE4F81EA0304C7
:1002400004F0004421F0004100944FF0000B23F033
:10025000004350EA01045ED052EA03045BD0C3F3CA
:100260000A54C1F30A552C44A4F2F3340194A0FBC0
:100270000254C1F3130141F48011C3F3130343F497
:10028000801301FB024400FB034E840A970A44EAF0
:10029000815447EA8357A4FB076802958D0A05FB42
:1002A00007854FEA932C04FB0C542705029D4FEA67
:1002B000065847EA1637B5EB08056EEB070C870EB4
:1002C000920E47EA811742EA8312A7FB0201B6EBBE
:1002D0000B0164EB00042B0D43EA0C335E1844EB76
:1002E0001C50DA465146E7FB0201C5F313044FEAFE
:1002F0000B3343EA14534FEA0432019C43EA0603EA
:10030000A4F10C040294009CCDE900B400F0CBF8F9
:1003100003B0BDE8F08F00200146F9E7002801DBBB
:10032000C0F10040002901DBC1F10041814201D34D
:100330000120704700207047002801DBC0F1004019
:10034000002901DBC1F10041814201D90120704740
:1003500000207047C10F80EAE0700844CA07962366
:10036000002100F063B80EB5C10F80EAE0700844C8
:10037000CA07002140F233438DE80E000A460B46BF
:1003800000F091F803B000BD00F0004220F0004002
:10039000C10DC0F3160040F400007F2901DA0020EF
:1003A0007047962903DCC1F19601C84001E09639F7
:1003B0008840002AF4D04042704720F00040C10D30
:1003C000C0F3160040F400007F2901DA00207047D6
:1003D000962903DCC1F19601C840704796398840E0
:1003E000704701F0004330B421F0004150EA0102AF
:1003F00006D00A0DA2F56072C1F31301002A02DCD7
:1004000030BC00207047440F44EAC104C100E0182A
:1004100030BC00EBC250AFF300800029A8BF70478A
:10042000401C490008BF20F00100704710B4B0FA2A
:1004300080FC00FA0CF050EA010404BF10BC7047C5
:1004400049B1CCF1200421FA04F411FA0CF118BFDF
:10045000012121430843A3EB0C01CB1D4FEA0061AE
:100460004FEA102042BF002010BC704700EBC35081
:1004700010440029A4BF10BC7047401C490008BFAD
:1004800020F0010010BC704710B5141E73F1000479
:1004900008DA401C41F1000192185B411A4301D176
:1004A00020F0010010BD2DE9F04D92469B4611B1A0
:1004B000B1FA81F202E0B0FA80F22032904600F008
:1004C00053F804460F4640EA0A0041EA0B0153463E
:1004D0005A46084313D0114653EA010019D0C8F117
:1004E0004002504600F04FF805460E465046594629
:1004F000424600F039F8084305D0012004E02046C8
:100500003946BDE8F08D0020054346EAE0762C43ED
:1005100037430A986305E40AA0EB08000022FD0AAD
:1005200044EA47540A3002D500200146E9E70105B4
:1005300010196941DDE9084500196941BDE8F04D30
:10054000A2E70000064C074D06E0E06840F001031A
:1005500094E8070098471034AC42F6D3FFF7CAFD81
:100560001054000830540008202A04DB203A00FA16
:1005700002F1002070479140C2F1200320FA03F3FA
:10058000194390407047202A04DB203A21FA02F0F8
:100590000021704721FA02F3D040C2F120029140BD
:1005A0000843194670470000FEE70000B0B584B06C
:1005B00040200090002040F6000401900120C4F289
:1005C00001040290032003906946204600F076FB68
:1005D0002046402100F072FC90B100200546012029
:1005E00000F03EFB2046402100F068FC18B1C72D0A
:1005F00005F10100F2D3C62D02D9012004B0B0BD2F
:100600002046402100F05AFC10B1002004B0B0BDDB
:10061000002000BF0546012000F022FB20464021BB
:1006200000F04CFC18B9EF2D05F10100F2D30020C9
:10063000EE2D88BF012004B0B0BD0000F0B585B03C
:1006400040F60004C4F2010440250126032701A955
:1006500020460195CDE90266049700F02FFB204665
:100660004021002200F030FC40F2EE2000F0F8FAC9
:1006700020464021012200F027FC0F2000F0F0FA74
:10068000FFF794FFCC2000F093F8442000F090F89E
:1006900001A92046CDE90156CDE9036700F00EFB24
:1006A00020464021002200F00FFC40F2EE2000F036
:1006B000D7FA20464021012200F006FC0F2000F06E
:1006C000CFFAFFF773FFCC2000F072F8BE2000F0E5
:1006D0006FF800F01FF8044600F01CF844EA00210F
:1006E00000F0F80000244A42F82808BF91B2C3F68F
:1006F000B074084604BF0024CBF6B074FFF733FE95
:1007000002460B4600202146FFF796FDFFF769FEE3
:1007100005B0F0BD2DE9F04F85B040F60004C4F2FD
:10072000010401254FF0400A4FF0030B0DF10408BE
:1007300000264FF0010900BF20464146CDE901A542
:10074000CDE9035B00F0BAFA20464021002200F018
:10075000BBFB022000F084FA20464021012200F079
:10076000B3FB002002A981E8210820464146CDF8CC
:1007700004A000F0A3FA0C2000F072FA20464021F9
:1007800000F09CFB074600284FF0320018BF0127FD
:1007900000F066FAF801310640EA5166B9F1080F37
:1007A00009F10109C8D3304605B0BDE8F08F00005B
:1007B0002DE9F04385B007464FFA80F840200190BC
:1007C000012040F60004CDE902000320C4F2010438
:1007D000049001A9204600F071FA20464021002231
:1007E00007F0010500F070FB02204FF00209002D18
:1007F00008BF3C2000F034FA20464021012200F0DE
:1008000063FB3C203C26002D08BF022000F028FAA4
:1008100020464021002207F0020500F055FB02208F
:10082000002D08BF3C2000F01BFA20464021012289
:1008300000F04AFB3C20002D08BF022000F010FA17
:1008400020464021002207F0040500F03DFB022075
:10085000002D08BF3C2000F003FA20464021012271
:1008600000F032FB3C20002D08BF022000F0F8F918
:1008700020464021002207F0080500F025FB022059
:10088000002D08BF3C2000F0EBF92046402101225A
:1008900000F01AFB3C20002D08BF022000F0E0F918
:1008A00020464021002207F0100500F00DFB022039
:1008B000002D08BF3C2000F0D3F920464021012242
:1008C00000F002FB3C20002D08BF022000F0C8F918
:1008D00020464021002207F0200500F0F5FA022012
:1008E000002D08BF3C2000F0BBF92046402101222A
:1008F00000F0EAFA3C20002D08BF022000F0B0F919
:1009000020464021002207F0400500F0DDFA0220D9
:10091000002D08BF3C2000F0A3F920464021012211
:1009200000F0D2FA3C20002D08BF022000F098F918
:1009300020464021002200F0C7FAB8F1FF3FC8BFAF
:100940004FF03C09484600F08BF920464021012237
:1009500000F0BAFAB8F1FF3FC8BF0226304600F0F7
:100960007FF905B0BDE8F08370470000EFF3108019
:1009700072B600BFFEE70000B0B581B00022009261
:1009800090F82420012A01D1022179E04A6801234C
:10099000062A80F8243005D803686FF0040C03F1B0
:1009A000340E0AE003680C2A87BF03F12C0E6FF0A7
:1009B000400C03F1300E6FF0220C02EB8202DEF8E5
:1009C000005062441F230C68934025EA030304FA95
:1009D00002F21A43CEF80020D1F800E002680EEBD4
:1009E0004E051024BEF1090F88BF1E3D88BF0C24A0
:1009F00052F804C007238968AB402CEA0303A940DE
:100A0000194311512EF001014FF0000C10294FF045
:100A1000000133D1016842F20042C4F20102914266
:100A200005D0816A41F020018162012126E09268AF
:100A3000120222D48A68BEF1100F42F400028A60CA
:100A40001BD140F21C01C2F2000109684DF683621D
:100A5000C4F21B32A1FB0212910C01EB810149008F
:100A60000091009949B100BF0099013900910099A6
:100A700000294FF00001F7D100E0002180F824C0E8
:100A8000084601B0B0BD0000B0B5002858D00446FB
:100A9000806A30B90020E06284F82400204600F02B
:100AA00099F820688168C90702D1002001211AE065
:100AB000816821F00101816000F00CFA054600BF59
:100AC00020688068C007F0D000F004FA401B0328BB
:100AD000F6D3A06A002140F01000A062E06A40F066
:100AE0000100E0620120A36AA26A31B313F0100191
:100AF00023D141F2021122EA01010231A162E1692E
:100B0000D4E9013241EA030C531EB3FA83F35D09C1
:100B10001346B2F5807F18BF2B02217D257B01296A
:100B20004CEA450E17D16DB1A56A45F02005A562C6
:100B3000E56A45F00105E5620DE042F01000A062B3
:100B40000120B0BDD4F818C04EF60005CFF6FF75F1
:100B500005EB4C352B432568B2F5807F696821F49D
:100B6000694141EA03016960A9684FF2FD73CFF65C
:100B7000E17301EA030141EA0E01A96001D0012AF3
:100B800006D121690022CFF6F07202EB015200E09B
:100B90000022E96A21F470011143E962A96840F674
:100BA000FE62CFF61F721140714507D10021E1624C
:100BB000A16A012262F30101A162B0BDA06A40F006
:100BC000100020F00200A062E06A40F00100E06244
:100BD0000120B0BD80B586B0014640F60000C4F2E9
:100BE0000100096800F5E05291424FF00001CDE9A3
:100BF000041101D006B080BD41F21801C4F2020117
:100C00000A6842F400720A600A6802F400720192F3
:100C1000019A0A6842F004020A60096801F00401BE
:100C200001910199022102910321039102A900F08F
:100C300045F806B080BD0000B0B5044600F04AF9A2
:100C4000054640F22000C2F200000078611C18BF87
:100C5000044400BF00F03EF9401BA042FAD3B0BDEF
:100C6000B0B540F2F4046FF00501C2F20004081AB6
:100C7000216885B220464D6200F0ACFF4FF6F97056
:100C8000854213D820684FF6FA7100BF426A92B2CB
:100C90008A420BD2426A92B28A4207D2426A92B226
:100CA0008A4203D2426A92B28A42EFD340F2F400FF
:100CB000C2F20000BDE8B04000F0BCBF2DE9F04F2B
:100CC00082B041F20042C4F201020E680423904255
:100CD00008BF0323002E009300F0EC8040F20C4E7E
:100CE00040F2004CC4F2010E0022C4F2010C0124B7
:100CF0004FF0000A4FF000093FE0012502F00C041C
:100D00000F27A7402BEA070705FA04F43C4343F8F2
:100D100026404E68F303DCF8003054BF23EA080392
:100D200043EA0803CCF80030DCF80430B40354BFC5
:100D300023EA080343EA0803CCF80430F402DCF8A1
:100D4000083054BF23EA080343EA0803B402CCF88E
:100D50000830DEF800304FF0010454BF23EA0803E6
:100D600043EA0803CEF800300E680AF1010A36FAA9
:100D70000AF302F1040200F09D8004FA0AFB16EA6D
:100D80000B08F1D04B684FF6FF75C1F21005AB426E
:100D900010DC122B50D8DFE803F0330A41454F4FE7
:100DA0004F4F4F4F4F4F4F4F4F4F4F484C00D1F881
:100DB0000C9041E04FF6FF75C1F22105AB420FDC0C
:100DC0000025C1F21105AB421AD00025C1F212056F
:100DD000AB4215D00025C1F22105AB4210D02BE06B
:100DE0000025C1F22205AB420AD00025C1F231052F
:100DF000AB4205D00025C1F23205AB421CD100BF89
:100E00008B6843B1012B14BFC0F814B0C0F810B008
:100E10004FF0080910E04FF004090DE0CB6803F132
:100E2000080909E04FF0000906E0CB6803F1040966
:100E300002E0CB6803F10C0913460546B8F5807F44
:100E400024BF203B04352E680F279F40BE4309FA7C
:100E500003F333432B60CB79DB067FF585AF41F29B
:100E60001804C4F2020423684FEA9A0643F001030F
:100E70002360236840F6000403F001030193019B03
:100E8000ACF57E7353F826B0C4F20104A0420FD033
:100E900040F60044C4F20104A0423FF42EAF41F2F8
:100EA0000004C4F20104009DA04208BF022525E70A
:100EB000002523E702B0BDE8F08F000080680840FD
:100EC00018BF012070470000002A08BF0904016113
:100ED0007047000040F27C10C2F2000000687047CA
:100EE000F0B581B0B0B3044690F83D0028B90020B9
:100EF00084F83C00204600F089F9242084F83D0065
:100F00002068016821F001010160016841F400419D
:100F10000160016821F40041016000F0B3FB48F278
:100F20008041C0F21E0140F60012656888424FF011
:100F30000001C0F23D0248F2A16C4FF0000338BF3F
:100F400001219042C0F2010C38BF0123654538BF32
:100F50000B4613B1012001B0F0BD4DF68361C4F220
:100F60001B31A0FB011221684FEA924E4B684FF4EF
:100F7000967623F03F0343EA92434B6044F6D35303
:100F80000F6A0EFB06F6C1F26203A6FB033627F0DA
:100F90003F03B709654538BF970C7A1C1A430A62AC
:100FA000CA6948F2A0674CF6FF73C0F20107BD4260
:100FB00022EA030C0AD801386A00B0FBF2F00130D3
:100FC0006FF31F30042898BF04202BE0A368A0F122
:100FD000010E9BB119206843BEFBF0F004220130E2
:100FE00062F31F30000512D09BB119206843BEFB8D
:100FF000F0F00422013062F31F3011E005EB4500F0
:10100000BEFBF0F001306FF31F300005ECD1012082
:1010100008E005EB4500BEFBF0F001306FF31F3038
:1010200040F4004040EA0C00C8610868D4E9072396
:1010300020F0C000104318430860886848F2FF326F
:1010400004F10C0790438CCF18431043A6698860C5
:10105000C86820F0FF0038433043C860086840F09B
:101060000100086000202021206484F83D102063E6
:1010700084F83E0001B0F0BD2DE9F04F83B09946F1
:1010800016460F460446FFF725FF94F83D10202929
:1010900022D1DDF83880DDF830B00546206880695F
:1010A00010F0020A14D0FFF715FF401B1A28F5D3E1
:1010B00000202021206384F83D1084F83E00216C3C
:1010C000BAF1000F41F02001216484F83C0003D103
:1010D00094F83C00012803D1022003B0BDE8F08F52
:1010E0000121206884F83C100168C90703D1016818
:1010F00041F0010101600168324621F400610160A4
:10110000212084F83D00402084F83E000020206427
:101110000D98C4F824B06085608D39462085002084
:10112000CFF6FF70E06220464B46CDF80080019577
:1011300001F078F818B1012003B0BDE8F08F208DE0
:10114000A8B308F1010600BF206850F8141F090673
:101150000FD40168490540D4002EF5D0FFF7BAFE40
:10116000B8F1000F4FF020013BD0401B4045EBD9B8
:1011700037E0606A2168034613F8012B0A61228D6B
:101180006362531E2385678D013F67854F697F0723
:101190000AD51B0408D0437802300B616062901EB0
:1011A0002085608D01386085208D0028CCD12046B7
:1011B00041462A4601F020F9F8B92068016841F457
:1011C00000710160202084F83D00002084F83E007A
:1011D00084F83C0003B0BDE8F08F6FF480610160DB
:1011E000042100202022206384F83D2084F83E0062
:1011F000226C1143216484F83C00206C04289AD1AD
:101200002068016841F40071016094E710B586B070
:1012100045F200410068C4F20001002288420492B5
:1012200002D006B010BD00BF41F21804C4F202049F
:10123000206840F008002060206800F0080001905D
:101240000198C0200290122003900320059001F520
:10125000384002A9FFF732FD606840F4001060607A
:10126000606800F400100190019806B010BD000005
:1012700040F2200040F27C11C2F20000C2F20001F4
:1012800000780A68104408607047000080B542F298
:101290000000C4F20200016841F010010160032067
:1012A00000F07EF8002000F005F800F02BF8002098
:1012B00080BD0000B0B540F22002C2F2000240F250
:1012C0001C011278C2F200014FF47A730968B3FB73
:1012D000F2F20446B1FBF2F1084600F093FB0F2C4A
:1012E0004FF001050CD858B94FF0FF3021460022CD
:1012F000002500F029F840F22400C2F2000004604A
:101300002846B0BD82B041F21800C4F20200016864
:10131000022241F001010160016801F00101019127
:101320000199416841F080514160406800F080506F
:10133000009000980420C4F20100016862F31A6171
:10134000016002B07047000010B54EF60C5CCEF2A2
:10135000000CDCF80030C3F3022E8EF00704042CDE
:1013600028BF0424BEF103034FF0FF3E0EFA04F43D
:1013700038BF0023A14399400EFA03F39A4300F0CB
:101380000F03043B1143634409010C3300F1604235
:10139000B0F1FF3FC8BF02F56443197010BD0000F3
:1013A0004EF60C51CEF200010A684FF6FF031A40C8
:1013B00060F30A2242F0806040F0FD7008607047E0
:1013C0002DE9F04182B00446007841F21C06C007C6
:1013D000C4F202064AD0306810F0805808D1306854
:1013E00040F080503060306800F0805001900198EB
:1013F00047F20007C4F200073868C00512D4386805
:1014000040F480703860FFF765FD05463868C00518
:1014100008D4FFF75FFD401B6428F7D9032002B012
:10142000BDE8F081706810F4407012D0616801F47A
:10143000407188420DD0706840F24042C4F24222AE
:10144000012320F4407113600023C0071360716012
:1014500029D17068616820F440700843B8F1000F2A
:10146000706003D1306820F08050306020688107C0
:1014700007D556F8181CA26821F44041114346F8DC
:10148000181CC00603D4002002B0BDE8F08156F855
:10149000180CE16820F48000084346F8180C00207E
:1014A00002B0BDE8F081FFF715FD054641F288372F
:1014B00070688007CDD4FFF70DFD401BB8424FF098
:1014C0000300F5D9ECE700002DE9F04381B00028D6
:1014D00000F0858042F20008C4F202080446D8F801
:1014E00000000D4600F0070088420CD2D8F800003A
:1014F00020F007002843C8F80000D8F8000000F0EA
:101500000700A8426BD1206841F204098107C4F2A8
:10151000020917D5410705D5D9F8001041F4E0615B
:10152000C9F80010010705D5D9F8001041F4605141
:10153000C9F80010D9F80010A26821F0F001114399
:10154000C9F80010C00741D1D8F8000000F007002A
:10155000A8420CD9D8F8000020F007002843C8F8AA
:101560000000D8F8000000F00700A84237D120683A
:10157000410707D5D9F80010E26821F4E061114372
:10158000C9F80010000708D5D9F80000216920F437
:10159000605040EAC100C9F80000D9F8002002F00C
:1015A0000C00082841F20020C0F27A004ED145F22A
:1015B000FE33C2F38341C0F60003595CD20339D431
:1015C00040F60010C0F23D0048433FE0606802284A
:1015D00009D0012829D159F8041C890307D4012016
:1015E00001B0BDE8F08359F8041C8901F7D5D9F89A
:1015F000001021F003010843C9F80000FFF76AFC5E
:10160000064641F2883700BFD9F80000616800F053
:101610000C00B0EB810F97D0FFF75CFC801BB84249
:10162000F2D9032001B0BDE8F08359F8041C890702
:10163000D5D5DCE7D9F8002043F2F433C2F34042B9
:10164000C0F600039A5C4843B0FBF2F0D9F80010F2
:1016500043F2F632C1F30311C0F60002515C40F2CE
:101660001C0220FA01F140F22400C2F200000068DE
:10167000C2F200021160FFF71DFE002001B0BDE8BC
:10168000F083000040F21C0041F20401C2F20000AD
:10169000C4F202010068096843F20642C1F3022164
:1016A000C0F60002515CC8407047000040F21C00C8
:1016B00041F20401C2F20000C4F2020100680968AC
:1016C00043F20642C1F3C221C0F60002515CC84099
:1016D000704700002DE9F04182B0002800F0D7806B
:1016E0000446007841F20006C007C4F2020644D066
:1016F000706800F00C00042817D0706800F00C002F
:10170000082802D17068C0030FD465682DB1B5F503
:10171000A02F10D0B5F5803F11D0306820F4803074
:101720003060306820F480200CE03068800324D5DD
:10173000606810BBABE0306840F4802030603068F7
:1017400040F480303060FFF7C5FB002D054611D016
:101750003068800311D4FFF7BDFB401B6428F7D924
:1017600016E100BFFFF7B6FB401B64284FF00300F3
:1017700000F28A8030688003F4D42078800718D57E
:10178000706810F00C0F07D0706800F00C0008288B
:1017900027D17068C00324D43068800702D520693F
:1017A000012874D13068616920F0F80040EAC10076
:1017B0003060207800074FD5A06940B30020C4F204
:1017C00042200121C0F88014FFF784FB054600BFCA
:1017D000706A80072DD4FFF77DFB401B0228F7D9E4
:1017E000D6E02069002840F20000C4F2422000F058
:1017F000A68001210160FFF76DFB05463068800778
:10180000D0D4FFF767FB401B0228F7D9C0E00020C7
:10181000C4F242200021C0F88014FFF75BFB0546AC
:10182000706A800718D5FFF755FB401B0228F7D9CF
:10183000AEE040F21C00C2F20000006844F6D35152
:10184000C1F26201A0FB0101480A019000BF0198AA
:10185000411E00280191F9D1207840071BD4E56989
:101860008DB1706800F00C00082846D1012D0ED013
:101870007068216A00F480328A4208D1616A00F4FB
:101880007010884203D1002002B0BDE8F081012031
:1018900002B0BDE8F081F06910F0805808D1F0691D
:1018A00040F08050F061F06900F0805000900098A6
:1018B00047F20007C4F200073868C0050FD4386843
:1018C00040F480703860FFF705FB05463868C005B6
:1018D00005D4FFF7FFFA401B6428F7D958E0E56804
:1018E0001DB1052D3CD0012D3ED0306A20F0010005
:1018F0003062306A20F0040039E00027C4F2422749
:1019000000203866FFF7E6FA022D05460CD100BF2D
:101910003068800154D5FFF7DDFA401B02284FF0F4
:101920000300F5D9B0E700BF30688001ABD5FFF701
:10193000D1FA401B02284FF00300F5D9A4E700219B
:101940000160FFF7C7FA0546306880077FF531AFC1
:10195000FFF7C0FA401B02284FF00300F4D993E7C9
:10196000306A40F004003062306A40F001003062BA
:10197000FFF7B0FA002D054641F2883714D000BFBA
:10198000306A800713D4FFF7A5FA401BB842F7D995
:10199000032002B0BDE8F081FFF79CFA401BB8427B
:1019A0004FF003003FF670AF306A8007F4D4B8F10F
:1019B000000F7FF454AFF06920F08050F0614EE7E3
:1019C000206AB0F5803F05D17168A26821F400312A
:1019D000114371607168626A21F474111043084305
:1019E000706001203866FFF775FA044630688001A0
:1019F0003FF549AFFFF76EFA001B02284FF00300D6
:101A0000F4D941E7411E0020B0EB116F1CBF01204B
:101A100070474EF21002CEF2000251604EF6235192
:101A2000CEF20001F0230B70072190601160704727
:101A300010B590F83C20012A4FF0020231D001236A
:101A400080F83C3080F83D200268D2F804E0D2F8FB
:101A500008C00C682EF07003234340F2FF74C4F2F8
:101A60000004A242536005DCB2F1804F0ED040F278
:101A7000004307E042F60043C4F201039A4205D056
:101A800040F60003C4F200039A4204D149682CF0E6
:101A90008003194391600121002280F83D1080F8F5
:101AA0003C20104610BD0000002804BF01207047F4
:101AB00010B5044690F83D0028B9002084F83C0099
:101AC000204600F05DF8022084F83D00206840F2D6
:101AD000FF730268C4F2000342F6004C9842C4F25D
:101AE000010C05DCB0F1804F0AD040F2004103E068
:101AF000604505D040F60001C4F20001884203D1E0
:101B0000A16822F070020A43984205DCB0F1804FD0
:101B10000AD040F2004103E0604505D040F60001E4
:101B2000C4F20001884203D1216922F440720A43C1
:101B3000A36922F08001D4F804E0E268194360450B
:101B40000160C262C0F828E002D16169CCF83010AF
:101B500001214161002084F8461084F83E1084F889
:101B60003F1084F8401084F8411084F8421084F843
:101B7000431084F8441084F8451084F83D1010BDDB
:101B800082B0006840F20041C4F20001884211D0E6
:101B9000B0F1804F1BD141F21C00C4F20200016879
:101BA00041F001010160006800F00100019001981E
:101BB00002B0704741F21C00C4F20200016841F01B
:101BC00002010160006800F002000090009802B07D
:101BD0007047000090F83D1001291CBF012070479C
:101BE000022180F83D10006840F2FF71C4F200014C
:101BF000884205DCB0F1804F0ED040F2004107E092
:101C000042F60041C4F20101884205D040F60001CD
:101C1000C4F20001884206D1816801F0070106295B
:101C200004BF00207047016841F0010101600020FD
:101C3000704700000146006841F21113026A1A421F
:101C400008D1026A40F244431A4203D1026822F0EA
:101C5000010202600122002081F83D20704700004F
:101C600080B590F83C20012A4FF0020200F0C080BD
:101C7000012380F83C3080F83D20D0F800C04FF6BA
:101C80007772DCF8083023EA0202CCF808200B68EF
:101C90003F2B1CDD5F2B20DD602B4FD0B3F5005FA9
:101CA0006CD0702B40F09E80D1E901E3C968DCF86C
:101CB000082043EA0E0322F47F4243EA0121114344
:101CC000CCF80810DCF8081041F0770188E01F2BF1
:101CD00028DC5BB3102B29D084E0402B61D0502B43
:101CE00040F08080D1F804E0C968DCF82030DCF8EE
:101CF000202022F00102CCF82020DCF8182022F06D
:101D0000F00242EA011123F00A0242EA0E02CCF884
:101D10001810CCF82020DCF8081041F0570121F011
:101D200020015DE0202B01D0302B5BD1DCF80810C6
:101D300021F07001194341F0070151E0D1F804E0AE
:101D4000C968DCF8203023F01003CCF82030DCF830
:101D50001830DCF8202023F4704322F0A00243EA7C
:101D6000013142EA0E12CCF81810CCF82020DCF831
:101D7000081041F0670121F0100131E0D1E901E3E1
:101D8000C968DCF8082043EA0E0322F47F4243EAE4
:101D900001211143CCF80810DCF8081041F480410F
:101DA0001EE0D1F804E0C968DCF82030DCF820201F
:101DB00022F00102CCF82020DCF8182022F0F002FA
:101DC00042EA011123F00A0242EA0E02CCF818108E
:101DD000CCF82020DCF8081041F0470121F0300158
:101DE000CCF808100121002280F83D1080F83C203A
:101DF000104680BDF0B590F83C30012B04BF0220A6
:101E0000F0BD4FEAB2020123032A80F83C3000F211
:101E1000E880DFE802F0023A77B3036842F6004751
:101E20001A6AC4F2010722F001021A621E6A1A46F7
:101E30005C6852F818CF8D6826F00206BB4245EA6E
:101E4000060E06D1CD682EF00C0625F0040545EAF5
:101E5000060E0E68BB4205D1D1E9055724F4407443
:101E60002C433C432CF0730737435C609F614F6801
:101E700009695F63C3F820E09F6947F008079F6125
:101E80009F6927F004079F61A8E0036842F60045B8
:101E90001A6AC4F2010522F010021A621C6A1A467C
:101EA000D3F804E052F818CF8E6824F02004AB4237
:101EB00044EA061407D1CE686FF0400724F0C0044E
:101EC00007EA061634430E68AB4207D1D1E905573D
:101ED0002EF4406E4EEA850545EA870E2CF4E6475F
:101EE00047EA0627C3F804E09F614F6809699F63CA
:101EF0001C629F6947F400679F619F6927F48067B0
:101F00009F616AE0036842F600451A6AC4F201055F
:101F100022F480721A621C6A1A46D3F804E052F85E
:101F20001CCF8E6824F40074AB4244EA062407D127
:101F3000CE6840F2FF47360224F44064BE43344387
:101F40000E68AB4207D1D1E905572EF4405E4EEA48
:101F5000051545EA071E2CF073073743C3F804E064
:101F6000DF614F680969DF631C62DF6947F00807BA
:101F7000DF61DF6927F00407DF612FE0036842F6C5
:101F800000471A6AC4F2010722F480521A621A4604
:101F9000D3F820C05D6852F81C4FD1F800E08E687D
:101FA000BB4204D14F6925F4804545EA87152CF4DE
:101FB000005747EA063724F4E64646EA0E265D60F7
:101FC000DE614E6809691E641F62DF6947F40067BD
:101FD000DF61DF6927F48067DF6109021368194355
:101FE0001160002180F83C100846F0BD002804BFB5
:101FF0000120704710B5044690F83D0028B9002034
:1020000084F83C00204600F05DF8022084F83D0092
:10201000206840F2FF730268C4F2000342F6004CED
:102020009842C4F2010C05DCB0F1804F0AD040F2B6
:10203000004103E0604505D040F60001C4F2000114
:10204000884203D1A16822F070020A43984205DC5D
:10205000B0F1804F0AD040F2004103E0604505D066
:1020600040F60001C4F20001884203D1216922F444
:1020700040720A43A36922F08001D4F804E0E268C8
:10208000194360450160C262C0F828E002D161696D
:10209000CCF8301001214161002084F8461084F80A
:1020A0003E1084F83F1084F8401084F8411084F802
:1020B000421084F8431084F8441084F8451084F8E2
:1020C0003D1010BD70470000002804BF012070477C
:1020D00010B5044690F8390028B9002084F838007B
:1020E000204600F05FF8242084F839002068D4E905
:1020F0000212C36823F40053C360036923F44053FE
:102100001A430261D4E904231143C268194341F21E
:102110000C639A431143C1604169A26921F4407183
:10212000114343F60002C4F201029042416102D021
:10213000FFF7A8FA01E0FFF7B9FA626819214843EE
:102140009100B0FBF1F048F21F51C5F2EB11A0FB7A
:1021500001235A096FF0630302FB0300322303EBF0
:102160000010A0FB0101F02303EA5113206803EBE8
:102170000212C1F3431111448160016921F49041BD
:102180000161416921F02A014161C16841F40051B6
:10219000C16000202021E06384F8391084F83A10EF
:1021A00010BD000070B586B040F60004C4F2010412
:1021B000006804F5405100268842049602D006B01B
:1021C00070BD00BF41F21800C4F20200016802AD08
:1021D00041F480410160016801F48041019101995D
:1021E000016841F0040101600068294600F0040024
:1021F000019001984FF40070029002200390032098
:1022000005902046FEF75AFD4FF48060CDE90206A6
:10221000204629460496FEF751FD06B070BD000029
:10222000FEE700002DE9F04F81B0044600689046BB
:102230000268DDF82CB042F48072026040690A9EA8
:10224000994610F001008A462ED180F00107751CD6
:1022500007E000BF2068406910F0010080F001072E
:1022600022D1002DF6D0FEF735FE1EB1A0EB0B00FB
:10227000B042EFD900202021206384F83D1084F87B
:102280003E00216C41F020012164F90784F83C00F4
:102290000AD020680068C00544BF4FF40070206475
:1022A000032001B0BDE8F08F20680AF0FE01016153
:1022B000416989072BD44169490513D4771C00BFB4
:1022C0004FB1FEF707FE002E00F08A80A0EB0B0056
:1022D000B04200F2858020684169890717D44169BE
:1022E0004905EDD5016841F4007101606FF480612A
:1022F000416100202021206384F83D1084F83E00D5
:10230000216C41F00401216484F83C0064E0002069
:102310000090206850F8141F0091416800910099C6
:102320000168090616D4771C05E000BF206850F844
:10233000141F09060ED40168490535D4002FF5D0C5
:10234000FEF7C8FD4FF0200196B3A0EB0B00B042A2
:10235000ECD92DE0B9F1010F1ED020684FEA182109
:10236000016150F8141F090616D4771C05E000BF60
:10237000206850F8141F09060ED40168490513D4CB
:10238000002FF5D0FEF7A6FD4FF0200186B1A0EB9F
:102390000B00B042ECD90BE020685FFA88F10161D4
:1023A000002001B0BDE8F08F6FF48061016004216E
:1023B00000202022206384F83D2084F83E00226C17
:1023C0001143216484F83C00206C042804D1206867
:1023D000016841F400710160012001B0BDE8F08F97
:1023E00000202021206384F83D1084F83E00216CF9
:1023F00041F0200187E70000F0B581B00446006895
:10240000154650F8143F5A0715D40E464F1C04E0E9
:10241000206850F8141F49070DD4016849050DD4F0
:10242000002FF5D0FEF756FD4FF0200156B1401BAE
:10243000B042EDD906E0002001B0F0BD6FF480613C
:102440000160042100202022206384F83D2084F8CC
:102450003E00226C1143216484F83C00012001B04D
:10246000F0BD0000B0B584B040F2280042F2004157
:10247000C2F20000C4F2010100244FF460220125E1
:1024800004730475C261C0E9001484600561FEF73D
:10249000FBFA002818BFFEF769FA40F22800C2F2E2
:1024A000000001A9CDE901550394FEF765FA002863
:1024B00018BFFEF75BFA04B0B0BD00002DE9F0478D
:1024C00084B041F21800C4F20200016840F600082E
:1024D00041F0100101600168C4F2010801F010012F
:1024E000009100990168002241F02001016001681B
:1024F0004FF0000A01F0200100910099016841F0BD
:1025000004010160016801F0040100910099016873
:1025100041F008010160006841F2C80100F00800C4
:10252000009000984046FEF7CFFC08F580652846ED
:1025300048F20801002248F20809FEF7C5FC08200D
:102540006E46009001270224404631460197CDE9AE
:102550000244FEF7B3FB3020CDE9000A4046314685
:102560000297FEF7ABFBC020CDE900074FF0030A4E
:10257000404631460297CDF80CA0FEF79FFB284657
:102580003146CDE90097CDE90244FEF797FB4FF4C1
:102590008050CDE9000740463146CDE9024AFEF7BA
:1025A0008DFB04B0BDE8F08780B540F2580045F2DD
:1025B0000041C2F20000C4F2000148F2A062002310
:1025C0004FF4804CC0F2010280E80E00C0E9033CE9
:1025D000C0E90533C0E90733FEF782FC002808BFD5
:1025E00080BDBDE88040FEF7C1B9000010B594B0D1
:1025F00040F2AC000021C2F200004FF0804241F6F0
:102600001F4364240E91CDE90C110991CDE9071106
:10261000CDE90511CDE90311CDE90111C0E9002390
:10262000C0E9021401618161FFF73EFA002818BF7A
:10263000FEF79CF94FF480500B9040F2AC00C2F2D0
:1026400000000BA9FFF70CFB002818BFFEF78EF95E
:1026500040F2AC00C2F20000FFF7C8FC002818BF2F
:10266000FEF784F940F2AC000024C2F2000008A991
:10267000CDE90844FFF7DCF9002818BFFEF776F92A
:10268000602001903220CDE9020440F2AC00C2F299
:10269000000001A900220594FFF7ACFB002818BF39
:1026A000FEF764F940F2AC04C2F2000401A920462E
:1026B0000822FFF79FFB002818BFFEF757F9206894
:1026C0000021B0F1804F129102D014B010BD00BFB4
:1026D00041F21800C4F20200016841F004010160F7
:1026E000006810A900F004000F900F9848F2040051
:1026F000109002201190139040F60000C4F20100E7
:10270000FEF7DCFA0420C4F2010001684FF6FF4234
:10271000CFF6FF02114041F0E06141F480710160A9
:1027200014B010BD80B586B040F2F40040F2004213
:102730000021C2F20000C4F2000248234FF6FF7CE1
:102740000591CDE90311CDE90011C0E90023C0E9ED
:10275000021C01618161FFF7A7F9002818BFFEF78D
:1027600005F94FF48050029040F2F400C2F20000EC
:1027700002A9FFF775FA002818BFFEF7F7F840F234
:10278000F400C2F200006946FFF752F9002818BFB2
:10279000FEF7ECF806B080BD80B540F23C1043F681
:1027A0000001C2F20000C4F2010100234FF00C0C42
:1027B0004FF4E13280E80E00C0E90333C0E905C3FD
:1027C000C361FFF781FC002808BF80BDBDE88040E1
:1027D000FEF7CCB8FEE70000FEE700002DE9F04F61
:1027E00085B040F2580400254FF480760127C2F2EC
:1027F00000040DF1120B0DF113084FF0000900BF9A
:1028000009F1B0008DF8100004A8CDE900072046BA
:102810007821002201230296FEF72EFC0DF1110013
:10282000CDE9000720467821002201238DF81150C0
:102830000296FEF721FC10208DF812002046782128
:1028400000220123CDE900B70296FEF715FC4FF0F8
:10285000000A00BF20467821402201238DF8135042
:10286000CDE900870296FEF707FC0AF101004FFA56
:1028700080FABAF1FF3FEDDCB9F1070F09F1010968
:10288000BED305B0BDE8F08F80B5C820FEF7D4F9FF
:10289000BDE8804000F01EBB2DE9F04F89B0064630
:1028A00040B20D460028A2F1200744BF02350026A1
:1028B000102BA5F1500040F03F8140F258048DF8F4
:1028C00018004FF0010906A8C2F200044FF4807806
:1028D000CDE900092046782100220123CDF80880A7
:1028E000FEF7CAFB3009103005908DF819000DF184
:1028F0001900CDE900092046782100220123CDF8F6
:102900000880FEF7B9FB06F00F0004908DF81A005E
:102910000DF11A00CDE9000920467821002201239B
:10292000CDF80880FEF7A8FBF8B243F23662010149
:10293000C0F60002515C02EB00168DF81B100DF181
:102940001B072046782140220123CDE90079CDF8EC
:102950000880FEF791FB7078317996F802A096F81E
:1029600003B003918DF81B002046782140220123FB
:10297000CDE90079CDF80880FEF77EFB204678216E
:10298000402201238DF81BA0CDE90079CDF8088005
:10299000FEF772FB20467821402201238DF81BB000
:1029A000CDE90079CDF80880FEF766FB0398782121
:1029B0008DF81B00204640220123CDE90079CDF897
:1029C0000880FEF759FB707978218DF81B002046AE
:1029D00040220123CDE90079CDF80880FEF74CFBB9
:1029E000B07978218DF81B00204640220123CDE9E3
:1029F0000079CDF80880FEF73FFBF07978218DF85B
:102A00001B00204640220123CDE90079CDF8088043
:102A1000FEF732FBA5F14F008DF81C0007A8CDE9A9
:102A200000092046782100220123CDF80880FEF716
:102A300023FB059878218DF81D000DF11D00CDE9CF
:102A40000009204600220123CDF80880FEF714FB80
:102A5000049878218DF81E000DF11E00CDE90009C3
:102A6000204600220123CDF80880FEF705FB307ACE
:102A70000DF11F058DF81F0020467821402201230B
:102A8000CDE90059CDF80880FEF7F6FA707A782182
:102A90008DF81F00204640220123CDE90059CDF8D2
:102AA0000880FEF7E9FAB07A78218DF81F002046F9
:102AB00040220123CDE90059CDF80880FEF7DCFA69
:102AC000F07A78218DF81F00204640220123CDE9BD
:102AD0000059CDF80880FEF7CFFA307B78218DF8C9
:102AE0001F00204640220123CDE90059CDF808807F
:102AF000FEF7C2FA707B78218DF81F002046402235
:102B00000123CDE90059CDF80880FEF7B5FAB07B76
:102B100078218DF81F00204640220123CDE900597D
:102B2000CDF80880FEF7A8FAF07BCDE900598DF8C2
:102B30001F00204689E000BF40F2580B8DF82000AE
:102B40004FF0010A08A8C2F2000B4FF48078CDE9DB
:102B5000000A5846782100220123CDF80880FEF7AC
:102B60008BFA300910308DF821000DF12100CDE9EC
:102B7000000A5846782100220123CDF80880FEF78C
:102B80007BFA06F00F008DF822000DF12200CDE94E
:102B9000000A5846782100220123CDF80880FEF76C
:102BA0006BFAF8B243F20E4100EB4000C0F60001B0
:102BB00011F8102001EB40058DF823200DF12306BC
:102BC0005846782140220123CDE9006ACDF80880DB
:102BD000FEF752FA6878AF78EC7895F804908DF8A3
:102BE00023005846782140220123CDE9006ACDF820
:102BF0000880FEF741FA58467821402201238DF8DB
:102C00002370CDE9006ACDF80880FEF735FA584602
:102C10007821402201238DF82340CDE9006ACDF8C8
:102C20000880FEF729FA58467821402201238DF8C2
:102C30002390CDE9006ACDF80880FEF71DFA687987
:102C4000CDE9006A8DF823005846782140220123FF
:102C5000CDF80880FEF710FA09B0BDE8F08F00004B
:102C60002DE9F04F87B00646A1F1500040F258051B
:102C70008DF81400012705A8C2F20005144604913E
:102C80004FF4807ACDE900072846782100220123FD
:102C9000CDF808A0FEF7F0F9300900F110080DF1A9
:102CA0001500CDE9000728467821002201238DF880
:102CB0001580CDF808A0FEF7DFF90DF1160006F03B
:102CC0000F0BCDE9000728467821002201238DF85B
:102CD00016B0CDF808A0FEF7CFF943F61641C4EBC5
:102CE0000420C0F6000101EB40064FF0FF340DF167
:102CF000170900BF3019407878218DF81700284651
:102D000040220123CDE90097CDF808A0FEF7B4F9E1
:102D100001341F2CEED1049840F258044F388DF83E
:102D200018004FF0010A06A8C2F200044FF480799F
:102D3000CDE9000A2046782100220123CDF8089031
:102D4000FEF79AF90DF11900CDE9000A2046782125
:102D5000002201238DF81980CDF80890FEF78CF938
:102D60000DF11A00CDE9000A204678210022012346
:102D70008DF81AB0CDF80890FEF77EF9FE250DF11A
:102D80001B0700BF7019407878218DF81B00204682
:102D900040220123CDE9007ACDF80890FEF76CF9C6
:102DA0000135B5F58F7FEDD107B0BDE8F08F00009C
:102DB0002DE9F04F85B0002B049103907CD00E9844
:102DC0001C464508981E009058421746591E4FF061
:102DD00000085FFA80FB42F2107900264FF0000AEB
:102DE0000291019212E000BF0126039940F03002E7
:102DF00005FB08110E9BC8B20499D2B2FFF74CFD37
:102E000008F10108A0450AF1010A55D06FEA0A004D
:102E1000C0B2584502D101202AE000BF00996FEAF4
:102E20000800A1EB0801C9B2032900EB040101D29B
:102E3000012009E001F0FC02002301200433DFB28D
:102E4000974200FB09F0F9D1019F11F003010FD067
:102E5000012903D100EB8000400009E04FF47A72B1
:102E6000424302294FF0640108BF00FB01F2104603
:102E7000B7FBF0F04CF6CD41CCF6CC41A0FB0112F3
:102E8000D10801EB8101002EA0EB4100ADD10299E8
:102E90004145AADD0028A7D10398049905FB080045
:102EA0000E9BC0B22022FFF7F7FC002608F10108B4
:102EB000A0450AF1010AA9D105B0BDE8F08F0000D4
:102EC0007047000070470000FEF7D2B9704700005D
:102ED000FEE70000F0B583B040F2580440F200076E
:102EE000C2F200044FF480750126C2F200072046AA
:102EF000782100220123CDE900760295FEF7BCF887
:102F0000781CCDE900062046782100220123029595
:102F1000FEF7B2F8B81CCDE9000620467821002261
:102F200001230295FEF7A8F8F81CCDE9000620461B
:102F30007821002201230295FEF79EF8381DCDE985
:102F4000000620467821002201230295FEF794F81E
:102F5000781DCDE900062046782100220123029544
:102F6000FEF78AF8B81DCDE9000620467821002238
:102F700001230295FEF780F8F81DCDE900062046F2
:102F80007821002201230295FEF776F807F1080068
:102F9000CDE9000620467821002201230295FEF7A4
:102FA0006BF807F10900CDE90006204678210022E0
:102FB00001230295FEF760F807F10A00CDE900064B
:102FC00020467821002201230295FEF755F807F1EB
:102FD0000B00CDE90006204678210022012302954E
:102FE000FEF74AF807F10C00CDE9000620467821EB
:102FF000002201230295FEF73FF807F10D00CDE90D
:10300000000620467821002201230295FEF734F8BD
:1030100007F10E00CDE900062046782100220123A9
:103020000295FEF729F807F10F00CDE900062046CA
:103030007821002201230295FEF71EF807F1100007
:10304000CDE9000620467821002201230295FEF7F3
:1030500013F807F11100CDE900062046782100227F
:1030600001230295FEF708F807F11200CDE90006EA
:1030700020467821002201230295FDF7FDFF07F18C
:103080001300CDE900062046782100220123029595
:10309000FDF7F2FF07F11400CDE900062046782184
:1030A000002201230295FDF7E7FF07F11500CDE9A6
:1030B000000620467821002201230295FDF7DCFF5F
:1030C00007F11600CDE900062046782100220123F1
:1030D0000295FDF7D1FF07F11700CDE90006204664
:1030E0007821002201230295FDF7C6FF07F11800A1
:1030F000CDE9000620467821002201230295FDF744
:10310000BBFF07F11900CDE9000620467821002217
:1031100001230295FDF7B0FF07F11A00CDE9000683
:1031200020467821002201230295FDF7A5FF03B078
:10313000F0BD000094B0FEF7A9F800240120CDE90D
:103140000F44CDE90D440A900E904FF4E0104FF477
:103150008031022513900AA80494CDE90244CDE9F8
:103160000B14CDE91151FEF7B5FA28B1EFF3108039
:1031700072B600BFFEE700BF0F20CDE905054FF492
:103180008060CDE9080405A802210794FEF79CF9A8
:1031900020B1EFF3108072B6FEE700BF022001906D
:1031A0004FF40040039001A8FEF70AF920B1EFF3B5
:1031B000108072B6FEE700BFFFF780F9FFF752F903
:1031C000FFF7F2F9FFF712FAFFF7ACFAFFF7E4FAAC
:1031D000FFF75AFBFFF702FB202000210022FFF738
:1031E0003FFD302000210122FFF73AFD4020002161
:1031F0000222FFF735FD502000210322FFF730FDAA
:10320000002002210422FFF72BFD102002210522BD
:103210004FF01008FFF724FD202002210622FFF7BF
:103220001FFD302002210722FFF71AFD4020022156
:103230003A221023FFF730FB002004210622FFF77B
:103240000FFD102004210722FFF70AFD2020042192
:103250000822FFF705FD302004210922FFF700FDB9
:10326000402004213A221023FFF716FB00200621FC
:103270000622FFF7F5FC102006210722FFF7F0FCDD
:10328000202006210A22FFF7EBFC302006210B222A
:10329000FFF7E6FC402006213A221023FFF7FCFA54
:1032A000002740F2000A40F20009C4F2F017C4F20D
:1032B000A00AC4F220190FE040F60000C4F2010099
:1032C0002021FDF7FBFD044650464FF04041FCF73E
:1032D00029FF002C08BF82465046FDF76EF8834652
:1032E000FDF7ACF90646FDF74FF80546FDF732F855
:1032F00001463046FCF768FF4946FCF76BFFFDF7D7
:1033000043F80446502002212A460223CDF80080CB
:10331000FFF74EFD602002212E221023FFF7BCFA9A
:103320006820022122460123CDF80080FFF740FDEE
:103330007020022143221023FFF7AEFA4FF47A7077
:10334000FDF77AFC3846FDF738F802465020042194
:103350000223CDF80080FFF72BFD602004214322DB
:103360001023FFF799FA502006215A460223CDF880
:103370000080FFF71DFD6020062143221023FFF788
:103380008BFA4FF47A70FDF757FC30463946FCF75C
:10339000D3FF20B930465146FCF7C0FF50B940F684
:1033A0000000C4F2010000F580604FF400410122EA
:1033B000FDF78AFD40F60000C4F201001021FDF780
:1033C0007DFD00287FF478AF38464FF08041FCF750
:1033D000A9FE074684E702E008C8121F08C1002AB8
:1033E000FAD170477047002001E001C1121F002A86
:1033F000FBD1704701020000000000000000010244
:10340000030406070809000000000102030400008D
:10341000000000000000002F00000000070007006F
:1034200000147F147F1400242A7F2A12006264088B
:103430001323003649552250000005030000000008
:103440001C224100000041221C000014083E081408
:103450000008083E0808000000A0600000080808F6
:103460000808000060600000002010080402003E10
:103470005149453E0000427F4000004261514946AB
:10348000002141454B31001814127F10002745459B
:103490004539003C4A4949300001710905030036AD
:1034A0004949493600064949291E000036360000C0
:1034B00000005636000000081422410000141414C5
:1034C00014140000412214080002015109060032C0
:1034D0004959513E007C1211127C007F49494936FE
:1034E000003E41414122007F4141221C007F494969
:1034F0004941007F09090901003E4149497A007F9D
:103500000808087F0000417F4100002040413F0142
:10351000007F08142241007F40404040007F020CA1
:10352000027F007F0408107F003E4141413E007F42
:1035300009090906003E4151215E007F091929460B
:103540000046494949310001017F0101003F4040E7
:10355000403F001F2040201F003F4038403F006395
:1035600014081463000708700807006151494543B7
:1035700000007F41410000552A552A550000414175
:103580007F0000040201020400404040404000006F
:1035900001020400002054545478007F4844443809
:1035A00000384444442000384444487F0038545490
:1035B000541800087E0901020018A4A4A47C007F0E
:1035C000080404780000447D4000004080847D00B1
:1035D000007F102844000000417F4000007C041858
:1035E0000478007C0804047800384444443800FC23
:1035F000242424180018242418FC007C080404083F
:1036000000485454542000043F444020003C4040B3
:10361000207C001C2040201C003C4030403C0044EA
:1036200028102844001CA0A0A07C004464544C44F2
:103630001414141414140000000000000000000012
:10364000000000000000000000F800000000000082
:1036500000333000000000100C06100C06000000C3
:1036600000000000000040C07840C0784000043FE7
:1036700004043F040400007088FC083000000018B7
:1036800020FF211E0000F008F000E01800000021DB
:103690001C031E211E0000F00888700000001E217F
:1036A00023241927211010160E000000000000002E
:1036B000000000000000000000E01804020000000C
:1036C00000071820400000020418E000000000403D
:1036D000201807000000404080F0804040000202B7
:1036E000010F01020200000000F0000000000101D3
:1036F000011F01010100000000000000000080B077
:103700007000000000000000000000000000000148
:103710000101010101010000000000000000003073
:10372000300000000000000000008060180400600D
:1037300018060100000000E010080810E000000F6B
:10374000102020100F00001010F8000000000020D2
:10375000203F20200000007008080888700000301A
:1037600028242221300000300888884830000018C2
:10377000202020110E000000C02010F800000007DB
:103780000424243F240000F8088888080800001951
:10379000212020110E0000E0108888180000000F82
:1037A000112020110E0000380808C8380800000059
:1037B000003F000000000070880808887000001CAE
:1037C000222121221C0000E010080810E000000067
:1037D000312222110F00000000C0C00000000000D4
:1037E00000303000000000000080000000000000F9
:1037F00080600000000000008040201008000001F0
:1038000002040810200040404040404040000404B2
:10381000040404040400000810204080000000207C
:10382000100804020100007048080808F0000000B9
:10383000003036010000C030C828E810E00007184A
:10384000272423140B000000C038E0000000203CB7
:1038500023020227382008F8888888700000203F5B
:10386000202020110E00C030080808083800071872
:1038700020202010080008F808080810E000203F69
:10388000202020100F0008F88888E8081000203F4A
:1038900020202320180008F88888E8081000203F1E
:1038A000200003000000C030080808380000071896
:1038B0002020221E020008F808000008F808203F17
:1038C000210101213F20000808F80808000000201D
:1038D000203F2020000000000808F8080800C080F1
:1038E00080807F00000008F888C028180800203F6A
:1038F00020012638200008F8080000000000203FC2
:1039000020202020300008F8F800F8F80800203FB8
:10391000003F003F200008F830C00008F808203FB2
:10392000200007183F00E01008080810E0000F1002
:10393000202020100F0008F808080808F000203F99
:10394000210101010000E01008080810E0000F1834
:10395000242438504F0008F8888888887000203F59
:103960002000030C30200070880808083800003858
:10397000202121221C00180808F80808180000005F
:10398000203F2000000008F808000008F808001F89
:10399000202020201F000878880000C83808000078
:1039A00007380E010000F80800F80008F800033C92
:1039B0000700073C0300081868808068180820305A
:1039C0002C03032C30200838C800C8380800000039
:1039D000203F2000000010080808C83808002038E0
:1039E000262120201800000000FE02020200000034
:1039F000007F40404000000C30C00000000000008C
:103A000000010638C00000020202FE000000004073
:103A100040407F0000000000040202020400000099
:103A20000000000000000000000000000000808096
:103A3000808080808080000202040000000000007E
:103A4000000000000000000080808080000000195D
:103A5000242222223F2008F8008080000000003F3E
:103A6000112020110E000000008080800000000E58
:103A7000112020201100000000808088F800000E36
:103A8000112020103F200000808080800000001F57
:103A9000222222221300008080F0888888180020CB
:103AA000203F202000000000808080808000006B8C
:103AB00094949493600008F8008080800000203F78
:103AC000210000203F200080989800000000002086
:103AD000203F20200000000000809898000000C0D7
:103AE0008080807F000008F8000080808000203FF8
:103AF00024022D302000000808F8000000000020FB
:103B0000203F202000008080808080808000203F37
:103B100020003F20003F8080008080800000203F08
:103B2000210000203F200000808080800000001FD6
:103B3000202020201F00808000808000000080FF67
:103B4000A12020110E000000008080808000000E67
:103B5000112020A0FF8080808000808080002020B5
:103B60003F21200001000000808080808000003321
:103B7000242424241900008080E0808000000000BC
:103B8000001F202000008080000000808000001FB7
:103B9000202020103F208080800000808080000155
:103BA0000E300806010080800080008080800F3089
:103BB0000C030C300F00008080008080800000200B
:103BC000312E0E3120008080800000808080808136
:103BD0008E701806010000808080808080000021A7
:103BE000302C2221300000000000807C0202000006
:103BF0000000003F40400002027C800000000040C6
:103C0000403F0000000000000000FF000000000036
:103C10000000FF0000001060028C00FE02F202FEB5
:103C200000F800FF0000000000000000000000009D
:103C30000000000000000000000000000000000084
:103C40000000000000000000000000000000000074
:103C50000000000000000000000000000000000064
:103C60000000000000000000000000000000000054
:103C70000000000000000000000000000000000044
:103C80000000000000000000000000000000000034
:103C90000000000000000000000000000000000024
:103CA0000000000000000000000000000000000014
:103CB0000000000000000000000000000000000004
:103CC00000000000000000000000000000000000F4
:103CD00000000000000000000000000000000000E4
:103CE00000000000000000000000000000000000D4
:103CF00000000000000000000000000000000000C4
:103D000000000000000000000000000000000000B3
:103D1000000000000004047E018047300F102700DF
:103D200047807F000000000000000000000000004D
:103D30000000000000000000000000000000000083
:103D40000000000000000000000000000000000073
:103D50000000000000000000000000000000000063
:103D60000000000000000000000000000000000053
:103D70000000000000000000000000000000000043
:103D80000000000000000000000000000000000033
:103D90000000000000000000000000000000000023
:103DA0000000000000000000000000000000000013
:103DB0000000000000000000000000000000000003
:103DC00000000000000000000000000000000000F3
:103DD00000000000000000000000000000000000E3
:103DE00000000000000000000000000000000000D3
:103DF00000000000000000000000000000000000C3
:103E000000000000000000000000000000000000B2
:103E1000000000001060028C0000FE9292929292CC
:103E2000FE00000000000000000000000000000094
:103E30000000000000000000000000000000000082
:103E40000000000000000000000000000000000072
:103E50000000000000000000000000000000000062
:103E60000000000000000000000000000000000052
:103E70000000000000000000000000000000000042
:103E80000000000000000000000000000000000032
:103E90000000000000000000000000000000000022
:103EA0000000000000000000000000000000000012
:103EB0000000000000000000000000000000000002
:103EC00000000000000000000000000000000000F2
:103ED00000000000000000000000000000000000E2
:103EE00000000000000000000000000000000000D2
:103EF00000000000000000000000000000000000C2
:103F000000000000000000000000000000000000B1
:103F100000000004047E01407E42427E427E424216
:103F20007E400000000000000000000000000000D3
:103F30000000000000000000000000000000000081
:103F40000000000000000000000000000000000071
:103F50000000000000000000000000000000000061
:103F60000000000000000000000000000000000051
:103F70000000000000000000000000000000000041
:103F80000000000000000000000000000000000031
:103F90000000000000000000000000000000000021
:103FA0000000000000000000000000000000000011
:103FB0000000000000000000000000000000000001
:103FC00000000000000000000000000000000000F1
:103FD00000000000000000000000000000000000E1
:103FE00000000000000000000000000000000000D1
:103FF00000000000000000000000000000000000C1
:1040000000000000000000000000000000000000B0
:104010000000000022322AA6A262211109810100BB
:104020000000000000000000000000000000000090
:104030000000000000000000000000000000000080
:104040000000000000000000000000000000000070
:104050000000000000000000000000000000000060
:104060000000000000000000000000000000000050
:104070000000000000000000000000000000000040
:104080000000000000000000000000000000000030
:104090000000000000000000000000000000000020
:1040A0000000000000000000000000000000000010
:1040B0000000000000000000000000000000000000
:1040C00000000000000000000000000000000000F0
:1040D00000000000000000000000000000000000E0
:1040E00000000000000000000000000000000000D0
:1040F00000000000000000000000000000000000C0
:1041000000000000000000000000000000000000AF
:1041100000004222130B42827E02020A1223460052
:10412000000000000000000000000000000000008F
:10413000000000000000000000000000000000007F
:10414000000000000000000000000000000000006F
:10415000000000000000000000000000000000005F
:10416000000000000000000000000000000000004F
:10417000000000000000000000000000000000003F
:10418000000000000000000000000000000000002F
:10419000000000000000000000000000000000001F
:1041A000000000000000000000000000000000000F
:1041B00000000000000000000000000000000000FF
:1041C00000000000000000000000000000000000EF
:1041D00000000000000000000000000000000000DF
:1041E00000000000000000000000000000000000CF
:1041F00000000000000000000000000000000000BF
:1042000000000000000000000000000000000000AE
:104210002030AC63300088C8A8998E88A8C8880070
:10422000000000000000000000000000000000008E
:10423000000000000000000000000000000000007E
:10424000000000000000000000000000000000006E
:10425000000000000000000000000000000000005E
:10426000000000000000000000000000000000004E
:10427000000000000000000000000000000000003E
:10428000000000000000000000000000000000002E
:10429000000000000000000000000000000000001E
:1042A000000000000000000000000000000000000E
:1042B00000000000000000000000000000000000FE
:1042C00000000000000000000000000000000000EE
:1042D00000000000000000000000000000000000DE
:1042E00000000000000000000000000000000000CE
:1042F00000000000000000000000000000000000BE
:10430000000000000000000000000000000000228B
:10431000672212128040300F00003F4040710000C1
:10432000000000000000000000000000000000008D
:10433000000000000000000000000000000000007D
:10434000000000000000000000000000000000006D
:10435000000000000000000000000000000000005D
:10436000000000000000000000000000000000004D
:10437000000000000000000000000000000000003D
:10438000000000000000000000000000000000002D
:10439000000000000000000000000000000000001D
:1043A000000000000000000000000000000000000D
:1043B00000000000000000000000000000000000FD
:1043C00000000000000000000000000000000000ED
:1043D00000000000000000000000000000000000DD
:1043E00000000000000000000000000000000000CD
:1043F00000000000000000000000000000000000BD
:10440000000000000000000000000000000000406C
:1044100042445840407F40405048C60000000000E1
:10442000000000000000000000000000000000008C
:10443000000000000000000000000000000000007C
:10444000000000000000000000000000000000006C
:10445000000000000000000000000000000000005C
:10446000000000000000000000000000000000004C
:10447000000000000000000000000000000000003C
:10448000000000000000000000000000000000002C
:10449000000000000000000000000000000000001C
:1044A000000000000000000000000000000000000C
:1044B00000000000000000000000000000000000FC
:1044C00000000000000000000000000000000000EC
:1044D00000000000000000000000000000000000DC
:1044E00000000000000000000000000000000000CC
:1044F00000000000000000000000000000000000BC
:104500000000000000000000000000000000404427
:10451000444444444444444444FF00000000000038
:10452000000000000000000000000000000000008B
:10453000000000000000000000000000000000007B
:10454000000000000000000000000000000000006B
:10455000000000000000000000000000000000005B
:10456000000000000000000000000000000000004B
:10457000000000000000000000000000000000003B
:10458000000000000000000000000000000000002B
:10459000000000000000000000000000000000001B
:1045A000000000000000000000000000000000000B
:1045B00000000000000000000000000000000000FB
:1045C00000000000000000000000000000000000EB
:1045D00000000000000000000000000000000000DB
:1045E00000000000000000000000000000000000CB
:1045F00000000000000000000000000000000000BB
:104600000000000000000000000000000808E82989
:104610002E28E80808C80C0BE80808000000000075
:10462000000000000000000000000000000000008A
:10463000000000000000000000000000000000007A
:10464000000000000000000000000000000000006A
:10465000000000000000000000000000000000005A
:10466000000000000000000000000000000000004A
:10467000000000000000000000000000000000003A
:10468000000000000000000000000000000000002A
:10469000000000000000000000000000000000001A
:1046A000000000000000000000000000000000000A
:1046B00000000000000000000000000000000000FA
:1046C00000000000000000000000000000000000EA
:1046D00000000000000000000000000000000000DA
:1046E00000000000000000000000000000000000CA
:1046F00000000000000000000000000000000000BA
:1047000000000000000000000000000000FF094958
:10471000897F00000F40807F000000000000000043
:104720000000000000000000000000000000000089
:104730000000000000000000000000000000000079
:104740000000000000000000000000000000000069
:104750000000000000000000000000000000000059
:104760000000000000000000000000000000000049
:104770000000000000000000000000000000000039
:104780000000000000000000000000000000000029
:104790000000000000000000000000000000000019
:1047A0000000000000000000000000000000000009
:1047B00000000000000000000000000000000000F9
:1047C00000000000000000000000000000000000E9
:1047D00000000000000000000000000000000000D9
:1047E00000000000000000000000000000000000C9
:1047F00000000000000000000000000000000000B9
:10480000000000000000000000001060028C0000AA
:10481000FE9292929292FE000000000000000000C2
:104820000000000000000000000000000000000088
:104830000000000000000000000000000000000078
:104840000000000000000000000000000000000068
:104850000000000000000000000000000000000058
:104860000000000000000000000000000000000048
:104870000000000000000000000000000000000038
:104880000000000000000000000000000000000028
:104890000000000000000000000000000000000018
:1048A0000000000000000000000000000000000008
:1048B00000000000000000000000000000000000F8
:1048C00000000000000000000000000000000000E8
:1048D00000000000000000000000000000000000D8
:1048E00000000000000000000000000000000000C8
:1048F00000000000000000000000000000000000B8
:1049000000000000000000000004047E01407E4220
:10491000427E427E42427E400000000000000000D5
:104920000000000000000000000000000000000087
:104930000000000000000000000000000000000077
:104940000000000000000000000000000000000067
:104950000000000000000000000000000000000057
:104960000000000000000000000000000000000047
:104970000000000000000000000000000000000037
:104980000000000000000000000000000000000027
:104990000000000000000000000000000000000017
:1049A0000000000000000000000000000000000007
:1049B00000000000000000000000000000000000F7
:1049C00000000000000000000000000000000000E7
:1049D00000000000000000000000000000000000D7
:1049E00000000000000000000000000000000000C7
:1049F00000000000000000000000000000000000B7
:104A000000000000000000000000FC242424FC251D
:104A10002624FC24242404000000000000000000E0
:104A20000000000000000000000000000000000086
:104A30000000000000000000000000000000000076
:104A40000000000000000000000000000000000066
:104A50000000000000000000000000000000000056
:104A60000000000000000000000000000000000046
:104A70000000000000000000000000000000000036
:104A80000000000000000000000000000000000026
:104A90000000000000000000000000000000000016
:104AA0000000000000000000000000000000000006
:104AB00000000000000000000000000000000000F6
:104AC00000000000000000000000000000000000E6
:104AD00000000000000000000000000000000000D6
:104AE00000000000000000000000000000000000C6
:104AF00000000000000000000000000000000000B6
:104B00000000000000000040308F80844C552525B7
:104B100025554C808080000000000000000000004F
:104B20000000000000000000000000000000000085
:104B30000000000000000000000000000000000075
:104B40000000000000000000000000000000000065
:104B50000000000000000000000000000000000055
:104B60000000000000000000000000000000000045
:104B70000000000000000000000000000000000035
:104B80000000000000000000000000000000000025
:104B90000000000000000000000000000000000015
:104BA0000000000000000000000000000000000005
:104BB00000000000000000000000000000000000F5
:104BC00000000000000000000000000000000000E5
:104BD00000000000000000000000000000000000D5
:104BE00000000000000000000000000000000000C5
:104BF00000000000000000000000000000000000B5
:104C0000000000000000000000000000FF404040E5
:104C100040404000000000000000000000000000D4
:104C20000000000000000000000000000000000084
:104C30000000000000000000000000000000000074
:104C40000000000000000000000000000000000064
:104C50000000000000000000000000000000000054
:104C60000000000000000000000000000000000044
:104C70000000000000000000000000000000000034
:104C80000000000000000000000000000000000024
:104C90000000000000000000000000000000000014
:104CA0000000000000000000000000000000000004
:104CB00000000000000000000000000000000000F4
:104CC00000000000000000000000000000000000E4
:104CD00000000000000000000000000000000000D4
:104CE00000000000000000000000000000000000C4
:104CF00000000000000000000000000000000000B4
:104D000000000000004040404040407F40404040A4
:104D10004040404000000000000000000000000093
:104D20000000000000000000000000000000000083
:104D30000000000000000000000000000000000073
:104D40000000000000000000000000000000000063
:104D50000000000000000000000000000000000053
:104D60000000000000000000000000000000000043
:104D70000000000000000000000000000000000033
:104D80000000000000000000000000000000000023
:104D90000000000000000000000000000000000013
:104DA0000000000000000000000000000000000003
:104DB00000000000000000000000000000000000F3
:104DC00000000000000000000000000000000000E3
:104DD00000000000000000000000000000000000D3
:104DE00000000000000000000000000000000000C3
:104DF00000000000000000000000000000000000B3
:104E00000000000000FE225A8600FE9292929292CA
:104E1000FE00000000000000000000000000000094
:104E20000000000000000000000000000000000082
:104E30000000000000000000000000000000000072
:104E40000000000000000000000000000000000062
:104E50000000000000000000000000000000000052
:104E60000000000000000000000000000000000042
:104E70000000000000000000000000000000000032
:104E80000000000000000000000000000000000022
:104E90000000000000000000000000000000000012
:104EA0000000000000000000000000000000000002
:104EB00000000000000000000000000000000000F2
:104EC00000000000000000000000000000000000E2
:104ED00000000000000000000000000000000000D2
:104EE00000000000000000000000000000000000C2
:104EF00000000000000000000000000000000000B2
:104F000000000000FF04080700FF4020030C1422EB
:104F10004140000000000000000000000000000010
:104F20000000000000000000000000000000000081
:104F30000000000000000000000000000000000071
:104F40000000000000000000000000000000000061
:104F50000000000000000000000000000000000051
:104F60000000000000000000000000000000000041
:104F70000000000000000000000000000000000031
:104F80000000000000000000000000000000000021
:104F90000000000000000000000000000000000011
:104FA0000000000000000000000000000000000001
:104FB00000000000000000000000000000000000F1
:104FC00000000000000000000000000000000000E1
:104FD00000000000000000000000000000000000D1
:104FE00000000000000000000000000000000000C1
:104FF00000000000000000000000000000000000B1
:105000000000020202020202FE02024282020202C8
:10501000020000000000000000000000000000008E
:105020000000000000000000000000000000000080
:105030000000000000000000000000000000000070
:105040000000000000000000000000000000000060
:105050000000000000000000000000000000000050
:105060000000000000000000000000000000000040
:105070000000000000000000000000000000000030
:105080000000000000000000000000000000000020
:105090000000000000000000000000000000000010
:1050A0000000000000000000000000000000000000
:1050B00000000000000000000000000000000000F0
:1050C00000000000000000000000000000000000E0
:1050D00000000000000000000000000000000000D0
:1050E00000000000000000000000000000000000C0
:1050F00000000000000000000000000000000000B0
:1051000000000000000000FF000000000106000099
:10511000000000000000000000000000000000008F
:10512000000000000000000000000000000000007F
:10513000000000000000000000000000000000006F
:10514000000000000000000000000000000000005F
:10515000000000000000000000000000000000004F
:10516000000000000000000000000000000000003F
:10517000000000000000000000000000000000002F
:10518000000000000000000000000000000000001F
:10519000000000000000000000000000000000000F
:1051A00000000000000000000000000000000000FF
:1051B00000000000000000000000000000000000EF
:1051C00000000000000000000000000000000000DF
:1051D00000000000000000000000000000000000CF
:1051E00000000000000000000000000000000000BF
:1051F00000000000000000000000000000000000AF
:1052000000FE225A8600FE9292929292FE000000C8
:10521000000000000000000000000000000000008E
:10522000000000000000000000000000000000007E
:10523000000000000000000000000000000000006E
:10524000000000000000000000000000000000005E
:10525000000000000000000000000000000000004E
:10526000000000000000000000000000000000003E
:10527000000000000000000000000000000000002E
:10528000000000000000000000000000000000001E
:10529000000000000000000000000000000000000E
:1052A00000000000000000000000000000000000FE
:1052B00000000000000000000000000000000000EE
:1052C00000000000000000000000000000000000DE
:1052D00000000000000000000000000000000000CE
:1052E00000000000000000000000000000000000BE
:1052F00000000000000000000000000000000000AE
:10530000FF04080700FF4020030C14224140000066
:10531000000000000000000000000000000000008D
:10532000000000000000000000000000000000007D
:10533000000000000000000000000000000000006D
:10534000000000000000000000000000000000005D
:10535000000000000000000000000000000000004D
:10536000000000000000000000000000000000003D
:10537000000000000000000000000000000000002D
:10538000000000000000000000000000000000001D
:10539000000000000000000000000000000000000D
:1053A00000000000000000000000000000000000FD
:1053B00000000000000000000000000000000000ED
:1053C00000000000000000000000000000000000DD
:1053D00000000000000000000000000000000000CD
:1053E00000000000000000000000000000000000BD
:1053F00000000000000000000000000000000203A8
:105400000405060708090A0B0C0D0E0F101000000A
:10541000305400080000002028000000D6330008A7
:10542000585400082800002058050000E633000802
:10543000AE001040B081FFA1A6A83FC8D300D58020
:10544000D805D9F1DA12D8308D14AF000024F40059
:08545000010000001000000043
:04000005080000ED02
:00000001FF
